:10000000000003201104000053040000530400000A
:1000100053040000530400005304000000000000DB
:100020000000000000000000000000005304000079
:1000300053040000000000005304000053040000BB
:10040000FFFFFFFFFFFFFFFFFFFFFFFFFEFFFFFFFD
:1004100011484CF2205101804DF6281101800F48FF
:100420004FF4E97101800E480E490F4A03E050F87D
:10043000043B41F8043B9142F9DB0C480C494FF076
:10044000000201E040F8042B8842FBDB00F024F8B6
:10045000FEE7FFF7FEBF00000E200540002005402C
:10046000E00400000000FF1F0000FF1F0000FF1F4E
:100470000000FF1F80B483B000AF786000BF7B68CE
:100480005A1E7A60002BFAD100BF00BF0C37BD4660
:100490005DF8047B7047000080B500AF0B4B1B6814
:1004A0000A4A43F480631360094B4FF480721A6068
:1004B000084B1B68074A43F480031360064B4FF454
:1004C00080021A600548FFF7D5FFF7E7388004403F
:1004D00058A0044054F00F404CF00F4020A10700FA
:0400000300000411E4
:00000001FF
