:100000000000032091040000250500002B050000DE
:1000100031050000370500003D050000000000002C
:100020000000000000000000000000004305000088
:1000300049050000000000004F05000055050000C4
:10004000CD050000D9050000E5050000F105000020
:10005000FD0500000906000015060000210600004D
:100060002D0600003906000045060000510600007C
:100070005D060000690600007506000081060000AC
:100080008D06000099060000A5060000B1060000DC
:10009000BD060000C9060000D5060000E10600000C
:1000A000ED060000F906000005070000110700003A
:1000B0001D07000029070000350700004107000068
:1000C0004D07000059070000650700007107000098
:1000D0007D0700008907000095070000A1070000C8
:1000E000AD070000B9070000C5070000D1070000F8
:1000F000DD070000E9070000F50700000108000027
:100100000D08000019080000250800003108000053
:100110003D08000049080000550800006108000083
:100120006D080000790800008508000091080000B3
:100130009D080000A9080000B5080000C1080000E3
:10014000CD080000D9080000E5080000F108000013
:10015000FD08000009090000150900002109000040
:100160002D0900003909000045090000510900006F
:100170005D0900006909000075090000810900009F
:100180008D09000099090000A5090000B1090000CF
:08019000BD090000C9090000CF
:10040000FFFFFFFFFFFFFFFFFFFFFFFFFEFFFFFFFD
:1004100080B489B000AFF860B9607A60BB68FB61F6
:10042000FB68BB6100237B610AE0BA69131DBB61F5
:10043000FB69191DF96112681A607B6904337B61DD
:100440007A697B689A42F0D300BF00BF2437BD466B
:100450005DF8047B704780B485B000AF7860396088
:100460007B68FB600023BB6007E0FB681A1DFA6035
:1004700000221A60BB680433BB60BA683B689A42CA
:10048000F3D300BF00BF1437BD465DF8047B70474F
:1004900072B61C4B4CF220521A801A4B4DF62812A1
:1004A0001A80194B4FF4E9721A80184C0CE023465D
:1004B0001C1D186823461C1D1D6823461C1D1E6834
:1004C00032462946FFF7A4FF114B9C42EFD309E0C7
:1004D00023461C1D1D6823461C1D1E6831462846E8
:1004E000FFF7B9FF0B4B9C42F2D3DFF834000168F1
:1004F00041F470010160084C084B236062B600F0C3
:1005000041F8FEE70E20054000200540D409000018
:10051000E0090000E809000008ED00E0000000002C
:1005200088ED00E080B400AFFEE780B400AFFEE7E6
:1005300080B400AFFEE780B400AFFEE780B400AF48
:10054000FEE780B400AFFEE780B400AFFEE780B402
:1005500000AFFEE780B400AFFEE780B400AFFEE777
:1005600080B483B000AF786000BF7B685A1E7A60A9
:10057000002BFAD100BF00BF0C37BD465DF8047BED
:100580007047000080B500AF0B4B1B680A4A43F46C
:1005900080631360094B4FF480721A60084B1B682C
:1005A000074A43F480031360064B4FF480021A603D
:1005B0000548FFF7D5FFF7E73880044058A004400E
:1005C00054F00F404CF00F4020A1070080B500AF61
:1005D000FFF7C3FF00BF80BD80B500AFFFF7BDFFD1
:1005E00000BF80BD80B500AFFFF7B7FF00BF80BD83
:1005F00080B500AFFFF7B1FF00BF80BD80B500AF91
:10060000FFF7ABFF00BF80BD80B500AFFFF7A5FFD0
:1006100000BF80BD80B500AFFFF79FFF00BF80BD6A
:1006200080B500AFFFF799FF00BF80BD80B500AF78
:10063000FFF793FF00BF80BD80B500AFFFF78DFFD0
:1006400000BF80BD80B500AFFFF787FF00BF80BD52
:1006500080B500AFFFF781FF00BF80BD80B500AF60
:10066000FFF77BFF00BF80BD80B500AFFFF775FFD0
:1006700000BF80BD80B500AFFFF76FFF00BF80BD3A
:1006800080B500AFFFF769FF00BF80BD80B500AF48
:10069000FFF763FF00BF80BD80B500AFFFF75DFFD0
:1006A00000BF80BD80B500AFFFF757FF00BF80BD22
:1006B00080B500AFFFF751FF00BF80BD80B500AF30
:1006C000FFF74BFF00BF80BD80B500AFFFF745FFD0
:1006D00000BF80BD80B500AFFFF73FFF00BF80BD0A
:1006E00080B500AFFFF739FF00BF80BD80B500AF18
:1006F000FFF733FF00BF80BD80B500AFFFF72DFFD0
:1007000000BF80BD80B500AFFFF727FF00BF80BDF1
:1007100080B500AFFFF721FF00BF80BD80B500AFFF
:10072000FFF71BFF00BF80BD80B500AFFFF715FFCF
:1007300000BF80BD80B500AFFFF70FFF00BF80BDD9
:1007400080B500AFFFF709FF00BF80BD80B500AFE7
:10075000FFF703FF00BF80BD80B500AFFFF7FDFED0
:1007600000BF80BD80B500AFFFF7F7FE00BF80BDC2
:1007700080B500AFFFF7F1FE00BF80BD80B500AFD0
:10078000FFF7EBFE00BF80BD80B500AFFFF7E5FED1
:1007900000BF80BD80B500AFFFF7DFFE00BF80BDAA
:1007A00080B500AFFFF7D9FE00BF80BD80B500AFB8
:1007B000FFF7D3FE00BF80BD80B500AFFFF7CDFED1
:1007C00000BF80BD80B500AFFFF7C7FE00BF80BD92
:1007D00080B500AFFFF7C1FE00BF80BD80B500AFA0
:1007E000FFF7BBFE00BF80BD80B500AFFFF7B5FED1
:1007F00000BF80BD80B500AFFFF7AFFE00BF80BD7A
:1008000080B500AFFFF7A9FE00BF80BD80B500AF87
:10081000FFF7A3FE00BF80BD80B500AFFFF79DFED0
:1008200000BF80BD80B500AFFFF797FE00BF80BD61
:1008300080B500AFFFF791FE00BF80BD80B500AF6F
:10084000FFF78BFE00BF80BD80B500AFFFF785FED0
:1008500000BF80BD80B500AFFFF77FFE00BF80BD49
:1008600080B500AFFFF779FE00BF80BD80B500AF57
:10087000FFF773FE00BF80BD80B500AFFFF76DFED0
:1008800000BF80BD80B500AFFFF767FE00BF80BD31
:1008900080B500AFFFF761FE00BF80BD80B500AF3F
:1008A000FFF75BFE00BF80BD80B500AFFFF755FED0
:1008B00000BF80BD80B500AFFFF74FFE00BF80BD19
:1008C00080B500AFFFF749FE00BF80BD80B500AF27
:1008D000FFF743FE00BF80BD80B500AFFFF73DFED0
:1008E00000BF80BD80B500AFFFF737FE00BF80BD01
:1008F00080B500AFFFF731FE00BF80BD80B500AF0F
:10090000FFF72BFE00BF80BD80B500AFFFF725FECF
:1009100000BF80BD80B500AFFFF71FFE00BF80BDE8
:1009200080B500AFFFF719FE00BF80BD80B500AFF6
:10093000FFF713FE00BF80BD80B500AFFFF70DFECF
:1009400000BF80BD80B500AFFFF707FE00BF80BDD0
:1009500080B500AFFFF701FE00BF80BD80B500AFDE
:10096000FFF7FBFD00BF80BD80B500AFFFF7F5FDD1
:1009700000BF80BD80B500AFFFF7EFFD00BF80BDB9
:1009800080B500AFFFF7E9FD00BF80BD80B500AFC7
:10099000FFF7E3FD00BF80BD80B500AFFFF7DDFDD1
:1009A00000BF80BD80B500AFFFF7D7FD00BF80BDA1
:1009B00080B500AFFFF7D1FD00BF80BD80B500AFAF
:1009C000FFF7CBFD00BF80BD80B500AFFFF7C5FDD1
:0409D00000BF80BD27
:0C09D400E80900000000FF1F0000000008
:0809E0000000FF1F00000000F1
:040000030000049164
:00000001FF
