:1000000000000320110400005D0400005D040000F6
:100010005D0400005D0400005D04000000000000BD
:100020000000000000000000000000005D0400006F
:100030005D040000000000005D0400007D0400007D
:10040000FFFFFFFFFFFFFFFFFFFFFFFFFEFFFFFFFD
:1004100013484CF2205101804DF62811018000BF95
:1004200000BF10484FF4E971018000BF00BF00BF5A
:100430000D480E490E4A03E050F8043B41F8043BD6
:100440009142F9DB0B480C494FF0000201E040F803
:10045000042B8842FBDB00F033F8FEE7FFF7FEBF1A
:100460000E20054000200540B00600000000FF1FE0
:100470000000FF1F0000FF1F0400FF1F80B400AF3B
:10048000044B1B680133034A136000BFBD465DF88F
:10049000047B70470000FF1F80B400AF074B45F29C
:1004A000EA125A60054B00229A60044B07221A6038
:1004B00000BFBD465DF8047B704700BF10E000E060
:1004C00080B500AF164B03F580539B6B144A43F481
:1004D000806302F580529363124B4FF480729A65E9
:1004E000114B5B69104A43F4800353614FF4E130D0
:1004F00000F022F80D4800F09FF8FFF7CDFF0C4BFD
:100500001B68B3F57A7FFAD30A4800F095F8084BD8
:1005100000221A60044B4FF48002DA60EFE700BF5C
:100520000070044000A0044040F00F40740600003A
:100530000000FF1F8806000080B485B000AF78601F
:100540002E4B03F580535B6B2C4A43F4806302F51A
:1005500080525363294B03F580539B6B274A43F426
:10056000806302F580529363244B03F580535B68EC
:10057000224A23F0406302F5805253601F4B03F57B
:1005800080535B681D4A43F0806302F580525360DC
:100590001B4B4FF440721A64194B4FF440725A646B
:1005A000184B0022DA704FF020727B68B2FBF3F335
:1005B000FB60FB685B097B81FB68DBB203F01F0318
:1005C0007B727B891B0A9BB2DBB20E4A03F01F03CE
:1005D000DBB213700B4B7A89D2B25A70094B0022EE
:1005E0009A70084A7B7A9372064B0C22DA7000BF2D
:1005F0001437BD465DF8047B704700BF00700440AF
:1006000000A0044000A0064080B483B000AF0346C1
:10061000FB7100BF074B1B79DBB25BB2002BF9DA31
:10062000044AFB79D37100BF0C37BD465DF8047BEB
:10063000704700BF00A0064080B582B000AF786070
:100640000EE07B681B780A2B02D10D20FFF7DCFF40
:100650007B681B781846FFF7D7FF7B6801337B6008
:100660007B681B78002BECD100BF00BF0837BD466C
:1006700080BD000054616D67614F5320626F6F74DD
:100680006564210A0000000054414D47414F53204A
:100690005469636B207379737469636B203D202503
:1006A00020313030302028203173656320290A0042
:0400000300000411E4
:00000001FF
